:1008C2000102040810204080FFFFFFFFFFFFFFFF2F
:1008D200FFFFFFFFFFFFFFFFFFFFFFFFFFFFFFFF26
:1008E200C0807FBFDFBF7F80FF810076767EFFFF03
:1008F200FF80007F7F7FFFFFFFC3817E7E7EBDFF83
:10090200FFC3817E7E7E81C3FF0001FBF7FB0100F6
:10091200FF810076767EFFFFFFFFFFFFFFFFFFFFF5
:10092200FFFFFFFFFFFFFFFFFFFFFFFFFFFFFFFFD5
:10093200E4FDFCC3ED9FEE6480F8EC6480985015F2
:10094200E4FBFA0BBB00010AEB647D4A70F50DBDB6
:0509520000010C80DE35
:01095700227D
:060958003EF583E493FF6D
:10095E00E4FEEF5480FDBD8004D2B28002C2B2EF3D
:0B096E0025E0FFC2B0D2B00EBE08E7CB
:01097900225B
:10080000E4F508F509E4F50AF50BE4F50CF50DE55A
:1008100009250DFFE508350CFE74E22FF5827408FA
:10082000120958E509250DFFE508350CFE74DA2F8D
:10083000F5827408120958E509250DFFE508350C05
:10084000FE74D22FF5827408120958E509250DFFB0
:10085000E508350CFE74CA2FF5827408120958C2D7
:10086000B1D2B174C2250DF5827408350CF583E45C
:1008700093F5A07F057E00120932E4F5A0050DE591
:100880000D7002050CC39408E50C6480948050033D
:1008900002080F050BE50B7002050AC39414E50A64
:1008A00064809480500302080A0509E50970020576
:1008B00008C39432E508648094805003020805025E
:0208C00008002E
:0300000002097A78
:0C097A00787FE4F6D8FD75810D020800BE
:00000001FF
